:100000000C9443000C94EA0D0C94EA0D0C94EA0D48
:100010000C94970D0C948D0D0C94EA0D0C94EA0D34
:100020000C94EA0D0C94A9070C94EA0D0C94EA0DBB
:100030000C94EA0D0C94EA0D0C94EA0D0C94EA0D64
:100040000C947D0C0C94EA0D0C94EA0D0C94EA0DC2
:100050000C94EA0D0C94EA0D0C94EA0D0C94EA0D44
:100060000C94EA0D0C94EA0D0100010280010201DA
:1000700054001BE20154015E80015E0162001C34E9
:1000800001620168800011241FBECFEFD8E0DEBFFF
:10009000CDBFE8E6F0E040E017C0B591A5913591FD
:1000A0002591059107FD0CC095918591EF01F92FE0
:1000B000E82F05900D92A217B307D9F7FE0104C0EF
:1000C0001D92A217B307E1F7E538F40731F70E9454
:0A00D0004D0B0C94820DF894FFCF45
:1000DA0000003C000000640000000100FF00FF0077
:1000EA00FF00FF00FF00FF00FF00FF00FF00FF000E
:1000FA00FF00FF00FF00FF00FF00FF00FF00FF00FE
:10010A00FF00FF00FF00FF00FF00FF00FF00FF00ED
:10011A00FF00FF00FF00FF00FF00FF00FF00FF00DD
:10012A00FF00FF00FF00FF00FF00FF00FF004C0080
:10013A006800FF006800FF00FF0073006800FF000E
:10014A006800FF00FF0073004700FF004700FF0040
:10015A00FF0073004600FF004600FF00FF00730027
:10016A002400FF002400FF00FF0073000200FF00CC
:10017A002200FF00FF0059000100FF000100FF00FC
:10018A00FF0015000100FF000100FF00FF0015003D
:10019A000100FF000100FF00FF003F000100FF0017
:1001AA000100FF000100FF00FF002B000100FF001B
:1001BA000100FF000100FF00FF0041000100FF00F5
:1001CA000100FF002300FF00FF0027002300FF00BB
:1001DA000100FF000100FF00FF0045000100FF00D1
:1001EA000100FF000100FF00FF000700D900FF0027
:1001FA00B500FF002300FF002300FF002300FF00DB
:10020A002300FF002300FF002300F7007600FF0011
:10021A00FA00FF00FF000500DE00FF000100FF00FA
:10022A000100FF000100FF00FF0049000100FF007C
:10023A000100FF00FF000300DE00F7009200FF004C
:10024A000100FF000100FF000200FF000200FF00A2
:10025A000200FF000200FF000200FF000200FF0090
:10026A000100FF000400F7007400FF00FF00050012
:10027A000100FF000100FF00FF005200F700950097
:10028A00FF000100FF000100FF000100FF00010064
:10029A00FF000100FF000100FF000100FF00010054
:1002AA00FF000100FF000100FF000100FF00010044
:1002BA00EF008C00FF00F700FF00BD00FF00FF0009
:1002CA005200F7009D00FF000100FF000100FF003F
:1002DA000100E700D700F700DA00FF00FD00FF0089
:1002EA00DD00FF007700FE00EB00FF000100FF00C9
:1002FA000100FF000100FF000100FF000100FF00F4
:10030A000100FF000100FF009600FF00FF005200FD
:10031A00F7007000FF000100FF000100FF00370036
:10032A00FF00D900FF007500F7003000F700090050
:10033A00FF000100FF000100FF000100FF000100B3
:10034A00FF000100FF000100FF000100FF000100A3
:10035A00FF000100F7002F00F700BA00FF00FF00BE
:10036A004900DE00FF00FF0003007500FF000100E6
:10037A00FF000100FF009700FF005D00FF00300052
:10038A00FE00E900FF000100FF000100FF0001007C
:10039A00FF000100FF000100FF000100FF00010053
:1003AA00FF000100FF000100FF000100FF00010043
:1003BA00FF000100F7007200FF00FF004D00BD00C2
:1003CA00FF000100FF000100EF003500FF00BF0041
:1003DA00FF008F00FF000100FF000100FF00010085
:1003EA00FF000100FF000100FF000100FF00010003
:1003FA00FF000100FF000100FF000100FF000100F3
:10040A00FF000100FF000100FF000100FF000400DF
:10041A00FF009A00FF00FF004B009700FF00010059
:10042A00FF000100FF005F00FF009F00FF000100C6
:10043A00FF000100FF000100FF000100FF000100B2
:10044A00FF000100FF000100FF000100FF000100A2
:10045A00FF000100FF000100FF000100FF00010092
:10046A00FF000100FF000100FF000100FF00130070
:10047A00FF00FF004B001200FF000100FF000A000E
:10048A00FF00BC00FF007300FF000100FF00010035
:10049A00FF000100FF000100FF000100FF00010052
:1004AA00FF000100FF000100FF000100FF00010042
:1004BA00FF000100FF000100FF000100FF00010032
:1004CA00FF000100FF000100FF000200FF00FF0023
:1004DA004A00FE00CE00FF000100F7007100FF0095
:1004EA00B900FF000500FF000100FF000100FF0046
:1004FA000100FF000100FF000100FF000100FF00F2
:10050A000100FF000100FF000100FF000100FF00E1
:10051A000100FF000100FF000100FF000100FF00D1
:10052A000100FF000100FF000100FF00FF004A0078
:10053A00FE00CA00FF000100EF00D300FF005C00CC
:10054A00FF000100FF000100FF000100FF000100A1
:10055A00FF000100FF000100FF000100FF00010091
:10056A00FF000100FF000100FF000100FF00010081
:10057A00FF000100FF000100FF000100FF00010071
:10058A00FF000100FF000100FF00FF0039006800C2
:10059A00FF006800FF004700FF004500FF0024003D
:1005AA00FF002200FF000100FF00FF00030003001C
:1005BA00FF000100FF000100FF000100FF00010031
:1005CA00FF000100FF000100FF000100FF00010021
:1005DA00FF000100FF000100FF000100FF00010011
:1005EA00FF000100FF000100FF000100FF00010001
:1005FA00FF000100FF000100FF000100FF000100F1
:10060A00FF000100FF00FF0003000100FF000100DE
:10061A00FF002200FF002400FF004600FF00470001
:10062A00FF006800FF00FF0027006800FF00680065
:10063A00FF004700FF004500FF002400FF002200E2
:10064A00FF000100FF00FF000200F7000D00FF009D
:10065A000100FF000100FF000100FF000100FF0090
:10066A000100FF000100FF000100FF000100FF0080
:10067A000100FF000100FF000100FF000100FF0070
:10068A000100FF000100FF000100FF000100FF0060
:10069A000100FF000100FF000100FF000100FF0050
:1006AA000100FF00FF0003000100FF000100FF003E
:1006BA002200FF002400FF004600FF004700FF0061
:1006CA006800FF00FF003300DF00FF00FF000200A8
:1006DA00F7001300FF000100FF000100FF00010006
:1006EA00FF000100FF000100FF000100FF00010000
:1006FA00FF000100FF000100FF000100FF000100F0
:10070A00FF000100FF000100FF000100FF000100DF
:10071A00FF000100FF000100FF000100FF000100CF
:10072A00FF000100FF000400FF00FF004B0059001A
:10073A00FF000100FF000100FF000100FF000100AF
:10074A00FF000100FF000100FF000100FF0001009F
:10075A00FF000100FF000100FF000100FF0001008F
:10076A00FF000100FF000100FF000100FF0001007F
:10077A00FF000100FF000100FF000100FF0001006F
:10078A00FF003400FF00FF004C00F7002D00FF00BF
:10079A000100FF000100FF000100FF000100FF004F
:1007AA000100FF000100FF000100FF000100FF003F
:1007BA000100FF000100FF000100FF000100FF002F
:1007CA000100FF000100FF000100FF000100FF001F
:1007DA000100FF000100FF000500FF009B00FF0071
:1007EA00FF004D009600FF000100FF000100FF001E
:1007FA000100FF000100FF000100FF000100FF00EF
:10080A000100FF000100FF000100FF000100FF00DE
:10081A000100FF000100FF000100FF000100FF00CE
:10082A000100FF000100FF000100FF000100F700C6
:10083A007200FF00FF004F00DD00F7003300FF00E9
:10084A000100FF000100FF000100FF000100FF009E
:10085A000100FF000100FF000100FF000100FF008E
:10086A000100FF000100FF000100FF000100FF007E
:10087A000100FF000100FF000100FF000100F70076
:10088A002E00FF009900FF00FF0051005900FF00F1
:10089A000100FF000100FF000100FF000100FF004E
:1008AA000100FF000100FF000100FF000100FF003E
:1008BA000100FF000100FF000100FF000100FF002E
:1008CA000100FF000100FF000100FF000100FF001E
:1008DA007500FF00FF005400E700B400FF000100AC
:1008EA00FF000100FF000100FF000100FF000100FE
:1008FA00FF000100FF000100FF000100FF000100EE
:10090A00FF000100FF000100FF000100FF000100DD
:10091A00FF000100F700B600FF00FF005900690060
:10092A00FF000100FF000100FF000100FF000100BD
:10093A00FF000100FF000100FF000100FF000100AD
:10094A00FF000100FF000100FF000100FF0001009D
:10095A00FF000100FF00BA00FF00FF005100010084
:10096A00FF000100FF00FF000300D100FF000100AB
:10097A00FF000100FF000100FF000100FF0001006D
:10098A00FF000100FF000100FF000100FF0001005D
:10099A00FF000100FF000100FF000100FF00260028
:1009AA00FF00FF0003000100FF000100FF00FF003D
:1009BA0049000100FF000100FF000100FF00FF00E5
:1009CA0003009700FF000100FF000100FF00010083
:1009DA00FF000100FF000100FF000100FF0001000D
:1009EA00FF000100FF000100FF000100FF000100FD
:1009FA00FF000100FF00F200FF00FF0003000100FA
:100A0A00FF000100FF000100FF00FF004500010098
:100A1A00FF000100FF002300FF00FF0005009B000C
:100A2A00EF006C00FF000100FF000100FF00010061
:100A3A00FF000100FF000100FF000100FF000100AC
:100A4A00FF000100FF000100FF000100FF0001009C
:100A5A00FF00B800FF00FF0005002300FF000100AF
:100A6A00FF000100FF00FF0041000100FF0001003C
:100A7A00FF000100FF00FF000800EF007500FF0003
:100A8A000100FF000100FF000100FF000100FF005C
:100A9A000100FF000100FF000100FF000100FF004C
:100AAA000100FF000100F7003300F7007C00FF009F
:100ABA00FF0007000100FF000100FF000100FF0026
:100ACA00FF003F000100FF000100FF00FF000D00D2
:100ADA000200FF000200FF000200FF000200FF0008
:100AEA000200FF000200FF000200FF000200FF00F8
:100AFA000200FF000200FF00DE00FF00FF000B0003
:100B0A000100FF000100FF00FF005000D6005B005B
:100B1A00A400F4007B00CE0084000E008C006F005D
:100B2A008C002F008300F0008400110094007100F3
:100B3A00D600F700FF00FF006400AD007500BD009D
:100B4A00D700BD00D700B500B600C6001800B50032
:100B5A009600C6001800AD007500EF007D00FF008A
:100B6A00FF006200D600BA007B00CF007300AE001F
:100B7A007B00CF0073008E008400100073008E008B
:100B8A007B00EF007B00EF00DE00DB00FF00FF00D0
:100B9A006400AD005500B500B600C6003800BD00BF
:100BAA00D700BD00F700BD00D700BD00F700AD00BB
:100BBA005500FF00FF006400DE00FB007300AE007A
:100BCA0063000C006B004D005A00CB0063000C0060
:100BDA0063002C0063002C005200AA00D600BA0061
:100BEA00FF00FF006200EF005D00AD005500B50098
:100BFA00B600D6009A00C6001800BD00F700BD0076
:100C0A00D700B5009600BD00F700FF00FF00030003
:100C1A00DF00FF00FF0060009C00F3005200AA0002
:100C2A004A0069005A00EB006B006D006B004D0032
:100C3A0052008A009400B200EF005D00FF00FF003E
:100C4A006800D600BA00B500B600A5003400CE0090
:100C5A005900FF00FF00FF00FF00FF00FF00FF0038
:100C6A00FF00FF00FF00FF00FF00FF00FF00FF0082
:100C7A00FF00FF00FF00FF00FF00FF00FF00FF0072
:100C8A00FF00FF00FF00FF00FF00FF00FF00FF0062
:100C9A00FF00FF00FF00FF00FF00FF00FF00FF0052
:060CAA00FF00FF00C10085
:100CB0004F925F926F927F928F929F92AF92BF926C
:100CC000CF92DF92EF92FF92CF93DF93CDB7DEB753
:100CD00060970FB6F894DEBF0FBECDBF2B013C016D
:100CE0006B017C0120E8E21AF108C114D10420E86C
:100CF000E2062FE7F206A0F16B017C01CC0CDD1CB3
:100D0000EE1CFF1CCD28CE28CF2859F49B01AC0146
:100D10000E94D40D9B01AC0160E070E080E89FEB85
:100D20000FC097FF10C021E230E030930101209303
:100D300000019B01AC010E94A80D20E030E0A90158
:100D40000E94D00DE4C020E030E040E05CE40E946E
:100D5000D40D2B013C0187EE9FEF9E878D8712C03B
:100D60006115710520E882072FE7920708F0CFC0D0
:100D70004114510480E868068FE3780609F4CCC07A
:100D80001E861D869DE0490E9BEF591E9AE4691E42
:100D9000711CD301C201AF77BB27BC01CD016D50DF
:100DA0007B4F8A4C904C20E030E040E85FE30E94AB
:100DB000A80D6B017C0120E030E040E050E40E948F
:100DC000A90D9B01AC01C701B6010E94D00D69833A
:100DD0007A838B839C839B01AC010E94D40D6D832D
:100DE0007E838F8398879B01AC010E94D40D4B01B9
:100DF0005C0120E030E040E05FE3C701B6010E9403
:100E0000D40DA70196010E94D40D69877A878B873C
:100E10009C8787E176946794579447948A95D1F795
:100E20002FE7421A51086D857E85640D751D072ECA
:100E3000000C880B990B0E94DA0B2B013C0126E277
:100E40003EE948E75EE3C501B4010E94D40D23E109
:100E50003EEC4CEC5EE30E94A90DA50194010E94BA
:100E6000D40D6D877E878F87988B2EEE39EE41E902
:100E70005EE3C501B4010E94D40D2AEA3AEA4AE2CF
:100E80005FE30E94A90D2D813E814F8158850E940C
:100E9000D40D9B01AC016D857E858F8598890E945C
:100EA000A90D29853A854B855C850E94A90D29816C
:100EB0003A814B815C810E94D40D4B015C0121ED94
:100EC00037EF47E157E3C301B2010E94D40D9B0104
:100ED000AC01C501B4010E94A90D29853A854B8555
:100EE0005C850E94A80DA70196010E94A90D6B01C7
:100EF0007C0120E831E741E35FE3C301B2010E94D6
:100F0000D40D9B01AC01C701B6010E94A90D562F5B
:100F1000472F382F292F04C050E040E030E020E078
:100F2000652F742F832F922F60960FB6F894DEBF33
:100F30000FBECDBFDF91CF91FF90EF90DF90CF90AC
:100F4000BF90AF909F908F907F906F905F904F90E9
:020F5000089502
:100F52001F920F920FB60F9211244F925F926F92CF
:100F62007F928F929F92AF92BF92CF92DF92EF9237
:100F7200FF920F931F932F933F934F935F936F9320
:100F82007F938F939F93AF93BF93CF93DF93EF930F
:100F9200FF9380915C0190915D01019690935D01B8
:100FA20080935C01843E9C4009F0DAC003E010E0CB
:100FB200CAE7D0E00F2EF8E7CF2ED12CF02D0F2E5E
:100FC200FCE7EF2EF12CF02D0F2EF3E46F2EF02D17
:100FD200442443946894552451F80F2EF3E07F2E55
:100FE200F02D6894882486F80F2EF2E49F2EF02DBF
:100FF200888180648883888184FFFDCFF601A08088
:10100200B180B50180E090E00E94D80B609354015A
:10101200709355018093560190935701F7012081F7
:10102200223431F02334D9F0203409F08FC036C095
:101032008A2DA0926601813918F0709264010CC069
:10104200813718F05092640107C0813518F0409240
:10105200640102C010926401F701608277C060935C
:1010620058017093590180935A0190935B018A2D24
:10107200A0926601813918F0709263010CC0813729
:1010820018F05092630107C0813518F04092630155
:1010920002C010926301F701808258C020E030E064
:1010A20040EA50E40E94D40D20E030E040E85AE3E8
:1010B2000E94D40D9B01AC0160E070E080EA90E4F4
:1010C2000E94D00D20E030E040E85FE30E94A80DCE
:1010D20020E030E44CE156E40E94D40D60935401C8
:1010E20070935501809356019093570120E030E4AC
:1010F2004CE156E40E94D00D0E94580620E030EBED
:1011020046E555E40E94D00D2FE03FEC4BE55BE352
:101112000E94A90D9B01AC0160E070E080E89FE3B2
:101122000E94D00D23E333E948E853E40E94A80D5E
:101132006093540170935501809356019093570127
:101142000E944E0C60936501F701908201501109D3
:1011520009F04ECF10925D0110925C010E94FC0AD0
:10116200FF91EF91DF91CF91BF91AF919F918F91BD
:101172007F916F915F914F913F912F911F910F91AD
:10118200FF90EF90DF90CF90BF90AF909F908F90A5
:101192007F906F905F904F900F900FBE0F901F90B7
:0211A20018959E
:1011A4000F93CF93DF93CDB7DEB72C970FB6F89498
:1011B400DEBF0FBECDBF9CE0E8E4F1E0DE01119696
:1011C40001900D929A95E1F70230B1F1033009F4E0
:1011D4004EC0013089F090E092619E838D8350E08F
:1011E400556158874F8370E073617A87698730E06F
:1011F40036613C872B8755C0E3E0F8E1FC83EB8341
:10120400E3E8F0E0DF01A81BB109CD0192619E8300
:101214008D83E41BF109F561F887EF838FEA90E091
:10122400AC01461B510953615A874987821B9109B6
:1012340096619C878B8735C0E5E0F8E1FC83EB83FE
:10124400E3E8F0E0DF01A61BB109BD0172617E8312
:101254006D83E21BF109F561F887EF8390E09361F8
:101264009A87898750E056615C874B871AC0E6E00D
:10127400F8E1FC83EB8370E072617E836D8330E080
:10128400356138872F832FEA30E0B901681B710973
:10129400CB0193619A878987241B310936613C8786
:1012A4002B8766E070E0CE0101960E94AB0C2C9671
:1012B4000FB6F894DEBF0FBECDBFDF91CF910F9173
:0212C40008958B
:1012C60010C00E94B60D58F00E94AF0D40F029F4F0
:1012D6005F3F29F00C94CA0D51110C94BE0D0C946D
:1012E600E70D0E94D30C68F39923B1F3552391F3CC
:1012F600951B550BBB27AA2762177307840738F07F
:101306009F5F5F4F220F331F441FAA1FA9F335D0DB
:101316000E2E3AF0E0E832D091505040E695001C8F
:10132600CAF72BD0FE2F29D0660F771F881FBB1F49
:10133600261737074807AB07B0E809F0BB0B802D27
:10134600BF01FF2793585F4F3AF09E3F510578F053
:101356000C94CA0D0C94BE0D5F3FE4F3983ED4F393
:10136600869577956795B795F7959F5FC9F7880F27
:10137600911D9695879597F90895E1E0660F771F79
:10138600881FBB1F621773078407BA0720F0621B0A
:0E139600730B840BBA0BEE1F88F7E0950895D9
:1013A4000FC00E94AF0D38F00E94B60D20F09523B7
:1013B40011F00C94CA0D0C94E70D11240C94BE0D7D
:1013C4000E94D30C70F3959FC1F3950F50E0551F05
:1013D400629FF001729FBB27F00DB11D639FAA2786
:1013E400F00DB11DAA1F649F6627B00DA11D661FD5
:1013F400829F2227B00DA11D621F739FB00DA11DF6
:10140400621F839FA00D611D221F749F3327A00DAF
:10141400611D231F849F600D211D822F762F6A2F4B
:1014240011249F5750409AF0F1F088234AF0EE0FB0
:10143400FF1FBB1F661F771F881F91505040A9F7DD
:101444009E3F510580F00C94CA0D0C94BE0D5F3F75
:10145400E4F3983ED4F3869577956795B795F79519
:10146400E7959F5FC1F7FE2B880F911D9695879591
:0414740097F9089547
:1014780011C00E94AF0D38F00E94B60D20F039F46B
:101488009F3F19F426F40C94E70D0EF4E095E7FB62
:101498000C94CA0DE92F0E94D30C58F3BA176207AF
:1014A80073078407950720F079F4A6F50C94BD0D11
:1014B8000EF4E0950B2EBA2FA02D0B01B901900167
:1014C8000C01CA01A0011124FF27591B99F0593FAB
:1014D80050F4503E68F11A16F040A22F232F342FF3
:1014E8004427585FF3CF469537952795A795F04041
:1014F8005395C9F77EF41F16BA0B620B730B840B56
:10150800BAF09150A1F0FF0FBB1F661F771F881F0D
:10151800C2F70EC0BA0F621F731F841F48F4879565
:1015280077956795B795F7959E3F08F0B0CF939557
:0E153800880F08F09927EE0F97958795089574
:101546008AB18C608AB92FEF85EA9EE021508040EF
:101556009040E1F700C000005B982FE789EA93E02E
:10156600215080409040E1F700C000002A9A2FE702
:1015760089EA93E0215080409040E1F700C00000E6
:101586005A9A2FE789EA93E0215080409040E1F78C
:1015960000C000005B9A2FE789EA93E02150804063
:1015A6009040E1F700C0000062E070E082E091E068
:1015B6000E94AB0C2FE789EA93E0215080409040CF
:1015C600E1F700C000006AE070E086E091E00E946A
:1015D600AB0C2FE789EA93E0215080409040E1F779
:1015E60000C0000067E170E08AE191E00E94AB0C68
:0215F600089556
:1015F8000E94DE0D682F70E080E00E94660D2FEFDC
:1016080081EE94E0215080409040E1F700C0000056
:101618000E94E10D682F70E081E00E94660D2FEFB7
:1016280081EE94E0215080409040E1F700C0000036
:101638000E94DB0D682F70E082E00E94660D2FEF9C
:1016480081EE94E0215080409040E1F700C0000016
:101658000E94E40D682F70E083E00E94660D2FEF72
:1016680081EE94E0215080409040E1F700C00000F6
:101678000E94D80D682F70E084E00E94660D2FEF5D
:1016880081EE94E0215080409040E1F700C00000D6
:021698000895B3
:10169A000E94570D0E94DE0D682F70E080E00E94C4
:1016AA00660D2FEF81EE94E0215080409040E1F7E3
:1016BA0000C000000E94E10D682F70E081E00E94E6
:1016CA00660D2FEF81EE94E0215080409040E1F7C3
:1016DA0000C000000E94DB0D682F70E082E00E94CB
:1016EA00660D2FEF81EE94E0215080409040E1F7A3
:1016FA0000C00000C0ECDAE58FEF0E94A10D8FEF69
:10170A000E94A10D2197C1F702E020915E0140914C
:10171A00600160915F01809161010E94D2080E947C
:04172A00970BB8CF92
:10172E00DF92EF92FF920F931F93CF93DF93C0E060
:10173E00D0E0FE01EE0FFF1FE652FF4F059115910F
:10174E007E018FEFE81AF80AF701EE0FFF1FE6523F
:10175E00FF4F859195910817190789F4D02E802F88
:10176E000E94A10D11237CF0C0E0D0E08D2D0E94CF
:10177E00A10D21960C171D07CCF7E70105C0802F90
:10178E000E94A10D01C0E7012196CC3E85E0D8074D
:10179E0084F2DF91CF911F910F91FF90EF90DF9028
:0217AE0008959C
:1017B000E89409C097FB3EF49095809570956195EB
:1017C0007F4F8F4F9F4F9923A9F0F92F96E9BB27A1
:1017D0009395F695879577956795B795F111F8CF1D
:1017E000FAF4BB0F11F460FF1BC06F5F7F4F8F4F88
:1017F0009F4F16C0882311F096E911C0772321F07E
:101800009EE8872F762F05C0662371F096E8862F15
:1018100070E060E02AF09A95660F771F881FDAF76C
:0A182000880F9695879597F90895B3
:10182A00ECE7F0E080818064808380818F77808319
:10183A0080818E7F808380818260808380818B7F9C
:10184A0080838081877F8083EBE7F0E080818160FD
:10185A00808380818D7F808380818B7F8083EAE78C
:10186A00F0E08081846080838081826080838081CF
:10187A0081608083808180688083E0E7F0E08081F6
:10188A0081608083E1EBF0E08081856080837894D9
:02189A000895AF
:10189C000E94DB0C88F09F5798F0B92F9927B7510D
:1018AC00B0F0E1F0660F771F881F991F1AF0BA95F8
:1018BC00C9F714C0B13091F00E94BD0DB1E008958C
:1018CC000C94BD0D672F782F8827B85F39F0B93F7E
:1018DC00CCF3869577956795B395D9F73EF49095AB
:0E18EC008095709561957F4F8F4F9F4F0895A7
:1018FA001F920F920FB60F9211242F933F934F937B
:10190A005F936F937F938F939F93AF93BF93EF935D
:10191A00FF9385B5887F85BD4C9904C08BB18058EB
:10192A008BB903C0319B0E94150DFF91EF91BF91B6
:10193A00AF919F918F917F916F915F914F913F915D
:0C194A002F910F900FBE0F901F9018956A
:10195600CF92DF92EF92FF920F931F93CF93DF9375
:1019660061157105A1F06B01C82FD92FE12CF12C5F
:101976005A9A89810E94A10D888122960E94A10D02
:101986005A988FEFE81AF80ACE14DF0489F7DF9128
:10199600CF911F910F91FF90EF90DF90CF90089518
:1019A60057FD9058440F551F59F05F3F71F047950A
:1019B600880F97FB991F61F09F3F79F087950895EF
:1019C600121613061406551FF2CF4695F1DF08C00E
:1019D600161617061806991FF1CF8695710561052B
:0419E60008940895C4
:1019EA00579A54985C9A3998419AEDE6F0E08081CA
:1019FA0080618083ECE6F0E0808182608083E8E6A3
:101A0A00F0E0808184608083808182608083EEE65A
:101A1A00F0E08081816080838AEF87BD78940895A1
:101A2A00E1E8F0E080818260808380918800909173
:101A3A008900803D974049F480EA9FE090938900AD
:101A4A008093880010926201089580ED97E0909348
:0E1A5A0089008093880081E0809362010895E6
:101A6800219AE0E8F0E0808182688083E1E8F0E094
:101A780080818861808380E49CE9909387008093CB
:041A88008600089537
:101A8C00092E0394000C11F4882352F0BB0F40F480
:101A9C00BF2B11F460FF04C06F5F7F4F8F4F9F4FC0
:021AAC0008959B
:101AAE000E94F50C0E94150C0E94340D87E690E002
:0E1ABE000E94750D0E94C40D0E94A30A089597
:101ACC00E0ECF0E0908195FFFDCF8093C600E0EC58
:0E1ADC00F0E0808185FFFDCF6093C600089585
:101AEA009093C5008093C400E1ECF0E080818861A6
:0A1AFA0080838EE08093C2000895FF
:101B0400EC010E94EF0D0E94EE0DCE010E94F00D3B
:061B1400CE010E94EC0D61
:101B1A008F938FB78F9385B5856085BD8F918FBF62
:041B2A008F911895EA
:101B2E008F938FB78F9385B5856085BD8F918FBF4E
:041B3E008F911895D6
:0E1B42002A988EBD0DB407FEFDCF2A9A089595
:0E1B50005058BB27AA270E943C0A0C94460D51
:0E1B5E0000240A9416161706180609060895A4
:0E1B6C0000240A9412161306140605060895A6
:0E1B7A00E894BB2766277727CB0197F90895DB
:0C1B880084B18C6284B981E58CBD0895A5
:0C1B940097F99F6780E870E060E008951A
:081BA0000E9463090C94460D3C
:081BA8000E94D2090C94460DC5
:061BB0008091620108951E
:061BB60080916501089515
:061BBC0080916401089510
:061BC2008091630108950B
:061BC80080916701089501
:061BCE009FEF80EC08957A
:041BD4000C9400006D
:041BD8000E946B00FC
:021BDC0008956A
:021BDE00089568
:021BE000089566
:101BE200FDFDFDFD00EF04EE041BFEFEFEFE90EF88
:101BF200044A3F7F04EE064390EF83090008AF0BCF
:101C0200000A00050006000700EF0CEE90EF8000CE
:101C1200B0EF024900EF017F81E102E276E283E167
:061C2200018090EF0000BC
:0C1C280008EF0018001200150013001651
:011C3400723D
:011C35000F9F
:011C3600A904
:011C37006E3E
:00000001FF
