:100000000C9443000C94D9090C94D9090C94D90987
:100010000C948C090C9482090C94D9090C94D9097C
:100020000C94D9090C94F6030C94D9090C94D909B1
:100030000C94D9090C94D9090C94D9090C94D909B8
:100040000C9477080C94D9090C94D9090C94D9090B
:100050000C94D9090C94D9090C94D9090C94D90998
:100060000C94D9090C94D909010001028001020104
:10007000540013C00154015E80015E01620014123D
:1000800001620166800011241FBECFEFD8E0DEBF01
:10009000CDBFE8E6F0E040E017C0B591A5913591FD
:1000A0002591059107FD0CC095918591EF01F92FE0
:1000B000E82F05900D92A217B307D9F7FE0104C0EF
:1000C0001D92A217B307E1F7E538F40731F70E9454
:0A00D00047070C947709F894FFCF5E
:1000DA0000003C000000640000000500FF00FF0073
:1000EA00FF00FF00FF00FF00FF00FF00FF00FF000E
:1000FA00FF00FF00FF00FF00FF00FF00FF00FF00FE
:10010A00FF00FF00A500FD00FD000000FF00FF004A
:10011A003800FD00FD000000FF00FF003800FC0071
:10012A00FC000000FF00FF003800FC00FC0000009B
:10013A00FF00FF003800FC00FC000000FF00FF0089
:10014A003800FC00FC000000FF00FF002B00FC0050
:10015A00FC000000FF00FF000900FC00FC0000009A
:10016A00FF00FF000900FC00FC000000FF00FF0088
:10017A001E00FC00FC000100FF00FF001400FC0050
:10018A00FC000100FF00FF001F00FC00FC00010052
:10019A00FF00FF001200FC00FC000100FF00FF004E
:1001AA002100FC00FC000100FF00FF000300FE002C
:1001BA00FC00FC000400FE00FF00FF000300FC003E
:1001CA00FC000100FF00FF002300FC00FC0000000F
:1001DA00FF00FF000100FE00FC00FC000800FE001A
:1001EA00FF00FF000100FC00FC000000FF00FF0010
:1001FA002800FE00FC00FC000A00FD00FE00FF00D3
:10020A00FF002A00FC00FC000100FE00FF00FF00C6
:10021A000100FE00F900FC00FC000500FE00FF00E2
:10022A00FF002800FE00FC00FC000000FE00FF00AA
:10023A00FE00FE000000FD00FC00FC000700FD00BF
:10024A00FF00FF002700FE00FC00FC000000FE008B
:10025A00FF00FE00F900FC00FC000A00FE00FF009F
:10026A00FF002600FC00FC000000FE00FF00FD006D
:10027A00FC00FC000D00FF00FF002500FE00FC0052
:10028A00FC000000FF00FF000000FC00FC000E0064
:10029A00FE00FF00FF002400FE00FC00FD00FF003E
:1002AA00FE00FC00FC000F00FF00FF002400F90024
:1002BA00FC00FE00FF00FC00FC001000FF00FF0035
:1002CA002400F900FC00FE00FF00FC00FC00100006
:1002DA00FF00FF001B00FD00FD000000FC00FC0009
:1002EA000300FF00FF000000FC00FC001400FF00F8
:1002FA00FF000000FC00FC000400FD00FF00FF00FE
:10030A001200FD00FD000000FC00FC000300FF00DD
:10031A00FF000000FD00FC00FC001300FF00FF00CE
:10032A000000FC00FC000400FD00FF00FF001B00B1
:10033A00FE00FC00FC001300FF00FF002500FC008B
:10034A00FC001200FE00FF00FF002500FD00FC007B
:10035A00FC001100FF00FF002600FE00FC00FC006C
:10036A001000FE00FF00FF002700FE00FC00FC005A
:10037A000E00FD00FF00FF002900FC00FC000E003B
:10038A00FE00FF00FF002900FE00FC00FC000C003C
:10039A00FE00FF00FF002B00FD00FC00FC000B002C
:1003AA00FF00FF002800FC00FC000000FF00FF0027
:1003BA000000FE00FC00FC000B00FF00FF00000034
:1003CA00FC00FC000000FF00FF002300FC00FC0012
:1003DA000100FF00FF000000FE00FC00FC000A0014
:1003EA00FE00FF00FF000000FC00FC000100FF000F
:1003FA00FF002100FC00FC000100FF00FF000200DA
:10040A00FD00FC00FC000900FF00FF000200FC00E8
:10041A00FC000100FF00FF001F00FC00FC000100BF
:10042A00FF00FF000300FE00FC00FC000800FE00C5
:10043A00FF00FF000300FC00FC000100FF00FF00BA
:10044A001E00FC00FC000000FF00FF000500FC008D
:10045A00FC000800FF00FF000500FC00FC00000093
:10046A00FF00FF002700DB00B2006D009100910041
:10047A0001008E00920092000000DA00FF00FF00E7
:10048A003100B600B6000200DB00B600DB00B600A1
:10049A00FF00FF003100DB006D006D0002009200DA
:1004AA006D006D000100DB00FF00FF003100B600A7
:1004BA00B6000000DB00B600B6000300FF00FF0034
:1004CA003100DB006D006D00010049006D006D0018
:1004DA0001004900DB00FF00FF003100B600B60052
:1004EA000000DB00DB000000B600B6000200FF00DF
:1004FA00FF00320092004900490001006D006D00C2
:10050A00000049009200FF00FF003400DB00B60043
:10051A00B6000000DB00FF00FF00FF00FF00FF0045
:10052A00FF00FF00FF00FF00FF00FF00FF00FF00C9
:10053A00FF00FF00FF00FF00FF00FF00FF00E000D8
:10054A004F925F926F927F928F929F92AF92BF92D9
:10055A00CF92DF92EF92FF92CF93DF93CDB7DEB7C0
:10056A0060970FB6F894DEBF0FBECDBF2B013C01DA
:10057A006B017C0120E8E21AF108C114D10420E8D9
:10058A00E2062FE7F206A0F16B017C01CC0CDD1C20
:10059A00EE1CFF1CCD28CE28CF2859F49B01AC01B4
:1005AA000E94C9099B01AC0160E070E080E89FEB02
:1005BA000FC097FF10C021E230E030930101209371
:1005CA0000019B01AC010E949D0920E030E0A901D5
:1005DA000E94C509E4C020E030E040E05CE40E94EB
:1005EA00C9092B013C0187EE9FEF9E878D8712C0B8
:1005FA006115710520E882072FE7920708F0CFC03E
:10060A004114510480E868068FE3780609F4CCC0E7
:10061A001E861D869DE0490E9BEF591E9AE4691EAF
:10062A00711CD301C201AF77BB27BC01CD016D504C
:10063A007B4F8A4C904C20E030E040E85FE30E9418
:10064A009D096B017C0120E030E040E050E40E940B
:10065A009E099B01AC01C701B6010E94C5096983C5
:10066A007A838B839C839B01AC010E94C9096D83A9
:10067A007E838F8398879B01AC010E94C9094B0135
:10068A005C0120E030E040E05FE3C701B6010E9470
:10069A00C909A70196010E94C90969877A878B87C8
:1006AA009C8787E176946794579447948A95D1F703
:1006BA002FE7421A51086D857E85640D751D072E38
:1006CA00000C880B990B0E94D4072B013C0126E2EF
:1006DA003EE948E75EE3C501B4010E94C90923E186
:1006EA003EEC4CEC5EE30E949E09A50194010E9437
:1006FA00C9096D877E878F87988B2EEE39EE41E97F
:10070A005EE3C501B4010E94C9092AEA3AEA4AE24B
:10071A005FE30E949E092D813E814F8158850E9488
:10072A00C9099B01AC016D857E858F8598890E94D8
:10073A009E0929853A854B855C850E949E092981F7
:10074A003A814B815C810E94C9094B015C0121ED10
:10075A0037EF47E157E3C301B2010E94C9099B0180
:10076A00AC01C501B4010E949E0929853A854B85D1
:10077A005C850E949D09A70196010E949E096B0152
:10078A007C0120E831E741E35FE3C301B2010E9443
:10079A00C9099B01AC01C701B6010E949E09562FE7
:1007AA00472F382F292F04C050E040E030E020E0E6
:1007BA00652F742F832F922F60960FB6F894DEBFA1
:1007CA000FBECDBFDF91CF91FF90EF90DF90CF901A
:1007DA00BF90AF909F908F907F906F905F904F9057
:0207EA00089570
:1007EC001F920F920FB60F9211244F925F926F923D
:1007FC007F928F929F92AF92BF92CF92DF92EF92A5
:10080C00FF920F931F932F933F934F935F936F938D
:10081C007F938F939F93AF93BF93CF93DF93EF937C
:10082C00FF9380915C0190915D01019690935D0125
:10083C0080935C01843E9C4009F0D8C003E010E03A
:10084C00CAE7D0E00F2EF8E7CF2ED12CF02D0F2ECB
:10085C00FCE7EF2EF12CF02D0F2EF3E46F2EF02D84
:10086C00442443946894552451F80F2EF3E07F2EC2
:10087C00F02D6894882486F80F2EF2E49F2EF02D2C
:10088C00888180648883888184FFFDCFF601A080F5
:10089C00B180B50180E090E00E94D20760935401D2
:1008AC00709355018093560190935701F701208165
:1008BC00223431F02334D9F0203409F08FC036C003
:1008CC008A2DA0926501813918F0709263010CC0D9
:1008DC00813718F05092630107C0813518F04092AF
:1008EC00630102C010926301F701608277C06093CC
:1008FC0058017093590180935A0190935B018A2D92
:10090C00A0926501813918F0709262010CC0813798
:10091C0018F05092620107C0813518F040926201C4
:10092C0002C010926201F701808258C020E030E0D2
:10093C0040EA50E40E94C90920E030E040E85AE364
:10094C000E94C9099B01AC0160E070E080EA90E470
:10095C000E94C50920E030E040E85FE30E949D0959
:10096C0020E030E44CE156E40E94C9096093540144
:10097C0070935501809356019093570120E030E419
:10098C004CE156E40E94C5090E94A50220E030EB20
:10099C0046E555E40E94C5092FE03FEC4BE55BE3CF
:1009AC000E949E099B01AC0160E070E080E89FE32F
:1009BC000E94C50923E333E948E853E40E949D09EA
:1009CC006093540170935501809356019093570195
:1009DC000E94480860936401F7019082015011094C
:1009EC0009F04ECF10925D0110925C01FF91EF91D6
:1009FC00DF91CF91BF91AF919F918F917F916F912B
:100A0C005F914F913F912F911F910F91FF90EF901C
:100A1C00DF90CF90BF90AF909F908F907F906F9012
:0E0A2C005F904F900F900FBE0F901F90189587
:100A3A000F93CF93DF93CDB7DEB72C970FB6F89409
:100A4A00DEBF0FBECDBF9CE0E8E4F1E0DE01119607
:100A5A0001900D929A95E1F70230B1F1033009F451
:100A6A004EC0013089F090E092619E838D8350E000
:100A7A00556158874F8370E073617A87698730E0E0
:100A8A0036613C872B8755C0E3E0F8E1FC83EB83B2
:100A9A00E3E8F0E0DF01A81BB109CD0192619E8372
:100AAA008D83E41BF109F561F887EF838FEA90E003
:100ABA00AC01461B510953615A874987821B910928
:100ACA0096619C878B8735C0E5E0F8E1FC83EB8370
:100ADA00E3E8F0E0DF01A61BB109BD0172617E8384
:100AEA006D83E21BF109F561F887EF8390E093616A
:100AFA009A87898750E056615C874B871AC0E6E07F
:100B0A00F8E1FC83EB8370E072617E836D8330E0F1
:100B1A00356138872F832FEA30E0B901681B7109E4
:100B2A00CB0193619A878987241B310936613C87F7
:100B3A002B8766E070E0CE0101960E94A5082C96EC
:100B4A000FB6F894DEBF0FBECDBFDF91CF910F91E4
:020B5A000895FC
:100B5C0010C00E94AB0958F00E94A40940F029F47F
:100B6C005F3F29F00C94BF0951110C94B3090C94FC
:100B7C00D6090E94CD0868F39923B1F3552391F35C
:100B8C00951B550BBB27AA2762177307840738F0F0
:100B9C009F5F5F4F220F331F441FAA1FA9F335D04D
:100BAC000E2E3AF0E0E832D091505040E695001C01
:100BBC00CAF72BD0FE2F29D0660F771F881FBB1FBB
:100BCC00261737074807AB07B0E809F0BB0B802D99
:100BDC00BF01FF2793585F4F3AF09E3F510578F0C5
:100BEC000C94BF090C94B3095F3FE4F3983ED4F323
:100BFC00869577956795B795F7959F5FC9F7880F99
:100C0C00911D9695879597F90895E1E0660F771FEA
:100C1C00881FBB1F621773078407BA0720F0621B7B
:0E0C2C00730B840BBA0BEE1F88F7E09508954A
:100C3A000FC00E94A40938F00E94AB0920F0952346
:100C4A0011F00C94BF090C94D60911240C94B30921
:100C5A000E94CD0870F3959FC1F3950F50E0551F80
:100C6A00629FF001729FBB27F00DB11D639FAA27F7
:100C7A00F00DB11DAA1F649F6627B00DA11D661F46
:100C8A00829F2227B00DA11D621F739FB00DA11D67
:100C9A00621F839FA00D611D221F749F3327A00D21
:100CAA00611D231F849F600D211D822F762F6A2FBD
:100CBA0011249F5750409AF0F1F088234AF0EE0F22
:100CCA00FF1FBB1F661F771F881F91505040A9F74F
:100CDA009E3F510580F00C94BF090C94B3095F3F05
:100CEA00E4F3983ED4F3869577956795B795F7958B
:100CFA00E7959F5FC1F7FE2B880F911D9695879503
:040D0A0097F90895B8
:100D0E0011C00E94A40938F00E94AB0920F039F4FA
:100D1E009F3F19F426F40C94D6090EF4E095E7FBE8
:100D2E000C94BF09E92F0E94CD0858F3BA17620739
:100D3E0073078407950720F079F4A6F50C94B20991
:100D4E000EF4E0950B2EBA2FA02D0B01B9019001D8
:100D5E000C01CA01A0011124FF27591B99F0593F1C
:100D6E0050F4503E68F11A16F040A22F232F342F64
:100D7E004427585FF3CF469537952795A795F040B2
:100D8E005395C9F77EF41F16BA0B620B730B840BC7
:100D9E00BAF09150A1F0FF0FBB1F661F771F881F7F
:100DAE00C2F70EC0BA0F621F731F841F48F48795D7
:100DBE0077956795B795F7959E3F08F0B0CF9395C9
:0E0DCE00880F08F09927EE0F979587950895E6
:100DDC008AB18C608AB92FEF85EA9EE02150804061
:100DEC009040E1F700C000005B982FE789EA93E0A0
:100DFC00215080409040E1F700C000002A9A2FE774
:100E0C0089EA93E0215080409040E1F700C0000057
:100E1C005A9A2FE789EA93E0215080409040E1F7FD
:100E2C0000C000005B9A2FE789EA93E021508040D4
:100E3C009040E1F700C0000062E070E082E091E0D9
:100E4C000E94A5082FE789EA93E02150804090404A
:100E5C00E1F700C000006AE070E086E091E00E94DB
:100E6C00A5082FE789EA93E0215080409040E1F7F4
:100E7C0000C0000067E170E08AE191E00E94A508E3
:020E8C000895C7
:100E8E000E944C090E94D009682F70E080E00E94F9
:100E9E005B092FEF81EE94E0215080409040E1F706
:100EAE0000C000000E94D309682F70E081E00E940C
:100EBE005B092FEF81EE94E0215080409040E1F7E6
:100ECE0000C000000E94CD09682F70E082E00E94F1
:100EDE005B092FEF81EE94E0215080409040E1F7C6
:100EEE0000C00000C0ECDAE58FEF0E9496098FEF8C
:100EFE000E9496092197C1F702E020915E01409170
:100F0E00600160915F01809161010E941D050E9448
:040F1E009107B8CFB0
:100F2200DF92EF92FF920F931F93CF93DF93C0E074
:100F3200D0E0FE01EE0FFF1FE652FF4F0591159123
:100F42007E018FEFE81AF80AF701EE0FFF1FE65253
:100F5200FF4F859195910817190789F4D02E802F9C
:100F62000E94960911237CF0C0E0D0E08D2D0E94F2
:100F7200960921960C171D07CCF7E70105C0802FB3
:100F82000E94960901C0E7012196C93382E0D80781
:100F920084F2DF91CF911F910F91FF90EF90DF903C
:020FA2000895B0
:100FA400E89409C097FB3EF49095809570956195FF
:100FB4007F4F8F4F9F4F9923A9F0F92F96E9BB27B5
:100FC4009395F695879577956795B795F111F8CF31
:100FD400FAF4BB0F11F460FF1BC06F5F7F4F8F4F9C
:100FE4009F4F16C0882311F096E911C0772321F092
:100FF4009EE8872F762F05C0662371F096E8862F2A
:1010040070E060E02AF09A95660F771F881FDAF780
:0A101400880F9695879597F90895C7
:10101E00ECE7F0E080818064808380818F7780832D
:10102E0080818E7F808380818260808380818B7FB0
:10103E0080838081877F8083EBE7F0E08081816011
:10104E00808380818D7F808380818B7F8083EAE7A0
:10105E00F0E08081846080838081826080838081E3
:10106E0081608083808180688083E0E7F0E080810A
:10107E0081608083E1EBF0E08081856080837894ED
:02108E000895C3
:101090000E94D50888F09F5798F0B92F9927B7512B
:1010A000B0F0E1F0660F771F881F991F1AF0BA950C
:1010B000C9F714C0B13091F00E94B209B1E00895AF
:1010C0000C94B209672F782F8827B85F39F0B93FA1
:1010D000CCF3869577956795B395D9F73EF49095BF
:0E10E0008095709561957F4F8F4F9F4F0895BB
:1010EE001F920F920FB60F9211242F933F934F938F
:1010FE005F936F937F938F939F93AF93BF93EF9372
:10110E00FF9385B5887F85BD4C9904C08BB18058FF
:10111E008BB903C0319B0E940F09FF91EF91BF91D4
:10112E00AF919F918F917F916F915F914F913F9171
:0C113E002F910F900FBE0F901F9018957E
:10114A00CF92DF92EF92FF920F931F93CF93DF9389
:10115A0061157105A1F06B01C82FD92FE12CF12C73
:10116A005A9A89810E949609888122960E94960934
:10117A005A988FEFE81AF80ACE14DF0489F7DF913C
:10118A00CF911F910F91FF90EF90DF90CF9008952C
:10119A0057FD9058440F551F59F05F3F71F047951E
:1011AA00880F97FB991F61F09F3F79F08795089503
:1011BA00121613061406551FF2CF4695F1DF08C022
:1011CA00161617061806991FF1CF8695710561053F
:0411DA0008940895D8
:1011DE00579A54985C9A3998419AEDE6F0E08081DE
:1011EE0080618083ECE6F0E0808182608083E8E6B7
:1011FE00F0E0808184608083808182608083EEE66F
:10120E00F0E08081816080838AEF87BD78940895B5
:10121E00E1E8F0E080818260808380918800909187
:10122E008900803D974039F480EA9FE090938900D1
:10123E0080938800089580ED97E0909389008093C5
:04124E008800089577
:10125200219AE0E8F0E0808182688083E1E8F0E0B2
:1012620080818861808380E49CE9909387008093E9
:041272008600089555
:10127600092E0394000C11F4882352F0BB0F40F49E
:10128600BF2B11F460FF04C06F5F7F4F8F4F9F4FDE
:021296000895B9
:101298000E94EF080E940F080E94290987E690E043
:0E12A8000E946A090E94B9090E94EE0608958C
:1012B600E0ECF0E0908195FFFDCF8093C600E0EC76
:0E12C600F0E0808185FFFDCF6093C6000895A3
:1012D4009093C5008093C400E1ECF0E080818861C4
:0A12E40080838EE08093C20008951D
:1012EE00EC010E94DE090E94DD09CE010E94DF0999
:0612FE00CE010E94DB0995
:101304008F938FB78F9385B5856085BD8F918FBF80
:041314008F91189508
:101318008F938FB78F9385B5856085BD8F918FBF6C
:041328008F911895F4
:0E132C002A988EBD0DB407FEFDCF2A9A0895B3
:0E133A005058BB27AA270E9487060C943B0937
:0E13480000240A9416161706180609060895C2
:0E13560000240A9412161306140605060895C4
:0E136400E894BB2766277727CB0197F90895F9
:0C13720084B18C6284B981E58CBD0895C3
:0C137E0097F99F6780E870E060E0089538
:08138A000E94AE050C943B0922
:081392000E941D060C943B09AA
:06139A008091640108953A
:0613A00080916301089535
:0613A60080916201089530
:0613AC009FEF80EC0895A4
:0413B2000C94000097
:0413B6000E946B0026
:0213BA00089594
:0213BC00089592
:0213BE00089590
:1013C000FDFDFDFD00EF04EE041BFEFEFEFE90EFB2
:1013D000044A3F7F04EE064390EF83090008AF0BF9
:1013E000000A00050006000700EF0CEE90EF8000F9
:1013F000B0EF024900EF017F81E102E276E283E192
:06140000018090EF0000E6
:0C14060008EF001800120015001300167B
:011412007267
:011413000FC9
:01141400A92E
:011415006E68
:00000001FF
